:100000000C943F000C9467000C9467000C946700FC
:100010000C9467000C9467000C9467000C946700C4
:100020000C9467000C9467000C9467000C946700B4
:100030000C9467000C9467000C9467000C946700A4
:100040000C9467000C9467000C9467000C94670094
:100050000C9464060C94D8060C9467000C9467000A
:100060000C9467000C9467000C9467000C94670074
:100070000C949E060C9413070C946700D40711246B
:100080001FBECFEFD8E0DEBFCDBF11E0A0E0B1E0F2
:10009000E2EFF1E102C005900D92A033B107D9F76C
:1000A00012E0A0E3B1E001C01D92A439B107E1F76D
:1000B00010E0CFE3D0E004C02197FE010E94CB08FE
:1000C000CE33D107C9F70E9495050C94F7080C941C
:1000D00000000F931F93CF93DF93EC0160E070E07B
:1000E000CB01E991EE23B1F0AAE0B0E09B01AC01B5
:1000F0000E945708FF27E7FDF095AF0140535109D3
:100100008A01222717FD2095322F600F711F821F51
:10011000931FE7CFDF91CF911F910F9108958093A7
:10012000300188309CF424E230E030933701209392
:10013000360125E230E0309335012093340123E28B
:1001400030E0309333012093320141C08031A4F478
:1001500027E230E0309337012093360128E230E087
:10016000309335012093340126E230E0309333019F
:100170002093320188502BC08831A4F42AE230E069
:1001800030933701209336012BE230E03093350174
:100190002093340129E230E030933301209332017F
:1001A000805115C08032D4F421E230E03093370121
:1001B0002093360122E230E0309335012093340160
:1001C00020E230E03093330120933201885191E0F6
:1001D00001C0990F8A95EAF790933101E0913401BB
:1001E000F0913501908180913101982B9083E091BD
:1001F0003601F0913701908180958923808308959D
:100200008430910538F09C018938910528F028E860
:1002100030E002C024E030E0A4E1B0E00E944808F1
:10022000623F71058105910544F422E030E030938E
:100230003D0120933C0121E015C0603927E07207A1
:100240008105910544F420E130E030933D01209395
:100250003C0122E007C020E430E030933D012093D0
:100260003C0123E020933E0120913C0130913D016F
:1002700040E050E00E94AC0820933B0130E035950F
:10028000279520933A010895CF92DF92EF92FF9243
:100290000F931F93CF93DF93DC01CB018A01C0E062
:1002A0002AE0C22ED12CE12CF12CBC01CD01A701FA
:1002B00096010E948A08DA01C901F801EC0FF11DCC
:1002C000605D6083CF5F211531054105510569F7F8
:1002D000C8018C0F911DEC011882C8010E94D10841
:1002E000CE01DF91CF911F910F91FF90EF90DF90A2
:1002F000CF900895CF93DF9300D000D0CDB7DEB775
:10030000462F69837A838B839C8366E070E08FE35A
:1003100091E00E949B054A8167E070E08FE391E0E5
:100320000E949B054B8168E070E08FE391E00E94A2
:100330009B054C8169E070E08FE391E00E949B0592
:100340000F900F900F900F90DF91CF91089561154E
:10035000710579F0FB0101900020E9F73197AF01B9
:10036000461B570BDC01ED91FC910280F381E02DDF
:10037000099480E090E00895CF93DF93CDB7DEB786
:10038000CC52D1400FB6F894DEBF0FBECDBFF8946B
:1003900015BC14BC10928100109280001092B10024
:1003A0001092B00060E070E08FE391E00E94980549
:1003B000813609F089C361E070E08FE391E00E942B
:1003C0009805853709F080C362E070E08FE391E023
:1003D0000E9498058C3609F077C364E070E08FE3E3
:1003E00091E00E9498050E948F0065E070E08FE325
:1003F00091E00E94980590E00E94000166E070E0A4
:100400008FE391E00E949805898367E070E08FE3B5
:1004100091E00E9498058A8368E070E08FE391E0A4
:100420000E9498058B8369E070E08FE391E00E9461
:1004300098058C8349815A816B817C8140930001AE
:1004400050930101609302017093030180E491E0F5
:100450000E944E07789464E071E080E491E00E948D
:10046000A70180913E018093B1009E012F5F3F4F15
:1004700079018CE291E0F9019C0111922150304008
:10048000E1F78FEF89838A838FE78B83D12CE0E8B4
:100490008E2EE5E29E2EA12CB12C80E491E00E94EC
:1004A000C705892B09F4F9C180E491E00E94F705A2
:1004B0008C8385E08093B10082E083BD03B401FCAE
:1004C000FDCF1092B20004E010E080E491E00E94C1
:1004D000C705892B79F038013FEF631A730A80E46E
:1004E00091E00E94F705F701E00FF11F8083109261
:1004F000B20083018091B2008A3F38F380913E01BF
:100500008093B1008C81843209F024C18D818D34B7
:1005100009F020C18E818C3309F01CC1F701E00F76
:10052000F11F10828F81803509F440C058F4823465
:1005300009F05EC0CE0108960E946900CB010E94BE
:10054000000156C08235D1F1873509F051C0409184
:10055000300164E070E08FE391E00E949B054091E0
:100560003B0120913C0130913D01429FC001439FDE
:10057000900D112464E170E00E946208462F65E04E
:1005800070E08FE391E00E949B0560910001709103
:10059000010180910201909103010E947A0169E1B9
:1005A00071E080E491E00E94A70122C0CE0108968C
:1005B0000E946900862F0E948F001AC0CE01089603
:1005C0000E94690060930001709301018093020111
:1005D00090930301603875428105910558F480922B
:1005E000000190920101A0920201B092030102C0A9
:1005F00000E001C001E060E5762E7C826091300170
:10060000772767FD7095872F972FAE014B5F5F4F60
:100610000E9444011AE3FC01108372E4C72EC182D8
:100620009C012E5F3F4F60913B0140913C015091F6
:100630003D01649FC001659F900D112464E170E04D
:100640000E94620880E090E0A9010E944401FC0140
:10065000108322E52183AC014E5F5F4F6091000162
:100660007091010180910201909103010E94440167
:10067000FC011083718289E482838EE4838383E5A5
:1006800084831583AF01495F5F4FC68260E070E0ED
:10069000CB010E944401FC011083AC014E5F5F4F0F
:1006A00023E4218368E070E080E090E00E94440150
:1006B000FC011083AC014E5F5F4F24E4218360E1B5
:1006C00070E080E090E00E944401FC011083AC01E6
:1006D0004E5F5F4F21E4218368E170E080E090E0AD
:1006E0000E944401FC0110831182BE016C5F7F4FA8
:1006F00080E491E00E94A7016AE080E491E00E941A
:100700002206011103C01D2DD12EC7CE80E491E039
:100710000E94170685E08093B1001092B20080918C
:10072000B2008A3FE0F31092B2008091B2008A3F9B
:10073000E0F380913E018093B1004091000150911F
:100740000101609102017091030180E491E00E9437
:100750004E07D9CFE0913601F09137019081809119
:100760003101892B808382E083BD03B401FCFDCF7E
:10077000F701419128E030E091E080913101A091B2
:100780003401B0913501592F542311F15C91852B1F
:100790008C931092B20080913B015091B200581797
:1007A000E0F3A0913401B09135015C918091310169
:1007B000809585238C931092B20080913B015091DB
:1007C000B2005817E0F3990F21503109B1F641C03A
:1007D0005C91852B8C931092B20080913A015091DC
:1007E000B2005817E0F3A0913401B09135015C914B
:1007F00080913101809585238C931092B200809175
:100800003A015091B2005817E0F3A0913401B09131
:1008100035015C9180913101852B8C931092B2004F
:1008200080913A015091B2005817E0F3A091340141
:10083000B09135015C9180913101809585238C9335
:100840001092B20080913A015091B2005817E0F333
:10085000BACFCF018E199F09801791070CF489CF69
:10086000E0913401F0913501908180913101892B23
:1008700080831092B20080913A019091B200981753
:10088000E0F3E0913601F0913701908180913101E0
:1008900080958923808311E037CFE0913201F09178
:1008A00033011081809131011823D1102DCF09F42B
:1008B0002BCF82E083BD03B401FCFDCF49E0109251
:1008C000B200E0913201F0913301209131013327E0
:1008D00027FD3095808190E082239323892B51F06E
:1008E0008091B2008B3FB0F30FCF8091B2008B3F6D
:1008F00008F00ACF808190E082239323892BA9F30B
:100900004150E9F61092B200E0913201F0913301CA
:1009100020913101332727FD3095808190E082239B
:100920009323892B51F08091B2008B3FB0F3ECCE32
:100930008091B2008B3F08F0E7CE808190E0822367
:100940009323892BA9F38091B2008093390190E021
:100950009C01359527953595279595958795820F17
:10096000809338011092B200E0913201F09133018E
:1009700020913101332727FD3095808190E082233B
:100980009323892B51F08091B2008B3FB0F3BCCE02
:100990008091B2008B3F08F0B7CE808190E0822337
:1009A0009323892BA9F39091B20080913801891784
:1009B000C8F21092B200E0913201F091330120911F
:1009C0003101332727FD3095808190E082239323E6
:1009D000892B51F08091B2008B3FB0F395CE80917E
:1009E000B2008B3F08F090CE808190E08223932369
:1009F000892BA9F3FE0134966F01CE18DF0820E0A1
:100A000030E060E01092B200A0913201B091330169
:100A100040913101552747FD50958C9190E08423FA
:100A20009523892B49F08091B2008B3FB0F341C0F0
:100A30008091B2008B3FE8F58C9190E08423952360
:100A4000892BB1F39091B20080913801891710F190
:100A50001092B200A0913201B09133014091310166
:100A6000552747FD50958C9190E084239523892B41
:100A700049F08091B2008B3FB0F31BC08091B2006F
:100A80008B3FB8F48C9190E084239523892BB1F3AC
:100A900080E001C081E0022E01C0880F0A94EAF7CD
:100AA000682B2F5F3F4F2830310509F0ABCF6193A2
:100AB000A3CFA60143505109BE016C5F7F4F80E474
:100AC00091E00E949F0520CE41E660E070E08FE358
:100AD00091E00E949B0545E761E070E08FE391E0C3
:100AE0000E949B054CE662E070E08FE391E00E947B
:100AF0009B0541E063E070E08FE391E00E949B057D
:100B000044E064E070E08FE391E00E949B0540E2E6
:100B100065E070E08FE391E00E949B0560E07BE47C
:100B200080E090E00E947A0158CC80E00E94BC01F5
:100B3000CB010C94E108CB01642F0C94E908CF920F
:100B4000DF92EF92FF920F931F93CF93DF936C018D
:100B5000EB017B01E40EF51E00E010E0CE15DF0591
:100B600061F06991D601ED91FC910190F081E02D49
:100B7000C6010995080F191FF1CFC801DF91CF9168
:100B80001F910F91FF90EF90DF90CF900895FC019F
:100B900024853585F901E05CFF4F80819181329693
:100BA00020813181805C9F4F821B930B60E470E059
:100BB0000E9476080895DC011C96ED91FC911D972A
:100BC000DF01A05CBF4F2D913C91119712968D9142
:100BD0009C9111972817390739F08D919C91E80F56
:100BE000F91F808190E008958FEF9FEF0895FC0139
:100BF000A485B585FD01E05CFF4F208131813296EF
:100C0000808191812817390779F080819181A80F1F
:100C1000B91F8C91208131812F5F3F4F2F73332774
:100C20003183208390E008958FEF9FEF0895FC01BA
:100C300081A1882329F0A489B5898C9186FFFBCFF7
:100C400011A208950F931F93CF93DF93FC01A68504
:100C5000B7858D01005C1F4FE8018881998101965D
:100C60008F739927AD014E5B5F4FEA01288139816F
:100C700082179307D1F3E80128813981A20FB31FAE
:100C80006C93A685B785A05CBF4F11969C938E93FD
:100C9000A689B7892C9181E090E0078C02C0880F6B
:100CA000991F0A94E2F7822B8C9381E081A3048838
:100CB000F589E02D80818064808381E090E0DF9180
:100CC000CF911F910F9108951F920F920FB60F921F
:100CD00011242F934F935F938F939F93EF93FF93E1
:100CE0008091C00082FD1CC02091C60080919002BE
:100CF0009091910201968F739927409192025091A1
:100D000093028417950771F0E0919002F09191029F
:100D1000E05BFD4F2083909391028093900202C08C
:100D20008091C600FF91EF919F918F915F914F91BC
:100D30002F910F900FBE0F901F9018951F920F923A
:100D40000FB60F9211242F934F935F938F939F931E
:100D5000EF93FF938091C80082FD1CC02091CE00CC
:100D6000809108029091090201968F739927409112
:100D70000A0250910B028417950771F0E091080266
:100D8000F0910902E853FE4F20839093090280936B
:100D9000080202C08091CE00FF91EF919F918F9148
:100DA0005F914F912F910F900FBE0F901F9018954C
:100DB0001F920F920FB60F9211242F933F938F9390
:100DC0009F93EF93FF9320914C0230914D028091BD
:100DD0004E0290914F022817390731F48091C100DB
:100DE0008F7D8093C10014C0E0914E02F0914F02BC
:100DF000E45FFD4F208180914E0290914F02019659
:100E00008F73992790934F0280934E022093C600D0
:100E1000FF91EF919F918F913F912F910F900FBE76
:100E20000F901F9018951F920F920FB60F921124DA
:100E30002F933F938F939F93EF93FF932091C40140
:100E40003091C5018091C6019091C70128173907DB
:100E500031F48091C9008F7D8093C90014C0E09166
:100E6000C601F091C701EC57FE4F20818091C60169
:100E70009091C70101968F7399279093C701809332
:100E8000C6012093CE00FF91EF919F918F913F91EA
:100E90002F910F900FBE0F901F901895CF92DF9259
:100EA000EF92FF920F931F93CF93DF93EC016A01B0
:100EB0007B01EC89FD8981E090E008A002C0880FE9
:100EC000991F0A94E2F7808360E47BE48CE490E06D
:100ED000A70196010E948A0889019A01015011090F
:100EE0002109310936952795179507959801011520
:100EF00080E1180708F042C0E889F9893083EA895F
:100F0000FB89208319A2EE89FF89408181E090E06E
:100F10009C010C8C02C0220F331F0A94E2F7242B91
:100F20002083EE89FF8940819C010D8C02C0220F35
:100F3000331F0A94E2F7242B2083EE89FF89408136
:100F40009C010E8C02C0220F331F0A94E2F7242B5F
:100F50002083EE89FF8920810F8C02C0880F991FA2
:100F60000A94E2F7809582238083DF91CF911F91CD
:100F70000F91FF90EF90DF90CF900895EC89FD895D
:100F8000108260EA75E286E290E0A70196010E9475
:100F90008A08DA01C9010197A109B109B695A79597
:100FA000979587959C01A8CFCF92DF92EF92FF9201
:100FB000E2E6F1E01382128288EEC82E83E0D82E9A
:100FC000E12CF12CC482D582E682F78264E271E0E2
:100FD0007183608380E592E0958784878CE092E05E
:100FE0009787868785EC90E0918B808B84EC90E0EE
:100FF000938B828B80EC90E0958B848B81EC90E0DE
:10100000978B868B82EC90E0918F808F86EC90E0BE
:10101000938F828F44E0448F33E0358F27E0268F13
:1010200095E0978F81E080A3E0E4F1E013821282E3
:10103000C482D582E682F7827183608368EC71E0B6
:101040007587648764E871E0778766876DEC70E088
:10105000718B608B6CEC70E0738B628B68EC70E072
:10106000758B648B69EC70E0778B668B6AEC70E053
:10107000718F608F6EEC70E0738F628F448F358F4D
:10108000268F978F80A3FF90EF90DF90CF900895E9
:10109000A29FB001B39FC001A39F700D811D1124B9
:1010A000911DB29F700D811D1124911D08950E9404
:1010B0004808A59F900DB49F900DA49F800D911D91
:1010C00011240895AA1BBB1B51E107C0AA1FBB1F17
:1010D000A617B70710F0A61BB70B881F991F5A95C4
:1010E000A9F780959095BC01CD01089597FB072E37
:1010F00016F4009407D077FD09D00E94620807FC1F
:1011000005D03EF4909581959F4F08957095619517
:101110007F4F0895A1E21A2EAA1BBB1BFD010DC033
:10112000AA1FBB1FEE1FFF1FA217B307E407F50797
:1011300020F0A21BB30BE40BF50B661F771F881F73
:10114000991F1A9469F760957095809590959B0109
:10115000AC01BD01CF010895052E97FB1EF400944C
:101160000E94C30857FD07D00E948A0807FC03D0DD
:101170004EF40C94C30850954095309521953F4FFF
:101180004F4F5F4F089590958095709561957F4F73
:101190008F4F9F4F0895EE0FFF1F0590F491E02DA4
:1011A0000994DC01FC01672F71917723E1F73297F5
:1011B00004C07C916D9370836291AE17BF07C8F332
:1011C0000895F999FECF92BD81BDF89A992780B50F
:1011D0000895262FF999FECF1FBA92BD81BD20BD7B
:1011E0000FB6F894FA9AF99A0FBE01960895F894FA
:0211F000FFCF2F
:1011F200004B00004B4B322041726475696E6F5593
:1012020053424C696E6B65720073617665643A0095
:101212000000000022069F05C705F705DB0517063B
:00000001FF
